{
  "contractName": "ERC165",
  "abi": [
    {
      "inputs": [],
      "stateMutability": "nonpayable",
      "type": "constructor"
    },
    {
      "inputs": [
        {
          "internalType": "bytes4",
          "name": "interfaceID",
          "type": "bytes4"
        }
      ],
      "name": "supportsInterface",
      "outputs": [
        {
          "internalType": "bool",
          "name": "",
          "type": "bool"
        }
      ],
      "stateMutability": "view",
      "type": "function"
    }
  ],
  "bytecode": "0x608060405234801561001057600080fd5b5061003a7f01ffc9a7a5cef8baa21ed3c5c0d7e23accb804b619e9333b597f47a0d84076e261003f565b6100c2565b6001600160e01b0319808216141561009d5760405162461bcd60e51b815260206004820152601960248201527f496e76616c696420696e74657266616365207265717565737400000000000000604482015260640160405180910390fd5b6001600160e01b0319166000908152602081905260409020805460ff19166001179055565b60d0806100d06000396000f3fe6080604052348015600f57600080fd5b506004361060285760003560e01c806301ffc9a714602d575b600080fd5b60576038366004606b565b6001600160e01b03191660009081526020819052604090205460ff1690565b604051901515815260200160405180910390f35b600060208284031215607c57600080fd5b81356001600160e01b031981168114609357600080fd5b939250505056fea26469706673582212207c9762cb7c403890b5311854eb5404a383f5a57ffba225e841d19b6f9cf99a0264736f6c634300080a0033",
  "immutableReferences": {},
  "source": "// SPDX-License-Identifier: MIT\npragma solidity ^0.8.4;\nimport './interfaces/IERC165.sol';\n\ncontract ERC165 is IERC165 {\n  constructor() {\n    _registerInterface(bytes4(keccak256('supportsInterface(bytes4)')));\n  }\n\n  mapping(bytes4 => bool) private _supportedInterfaces;\n  function supportsInterface(bytes4 interfaceID) external view returns (bool) {\n    return _supportedInterfaces[interfaceID];\n  }\n\n  function _registerInterface(bytes4 interfaceId) internal {\n    require(interfaceId != 0xffffffff, 'Invalid interface request');\n    _supportedInterfaces[interfaceId] = true;\n  }\n}",
  "sourcePath": "/Users/otavioensa/Desktop/projects/nft class/nft-marketplace-starter-kit/src/contracts/ERC165.sol",
  "compiler": {
    "name": "solc",
    "version": "0.8.10+commit.fc410830.Emscripten.clang"
  },
  "schemaVersion": "3.4.3",
  "updatedAt": "2021-12-07T18:45:06.715Z",
  "devdoc": {
    "kind": "dev",
    "methods": {
      "supportsInterface(bytes4)": {
        "details": "Interface identification is specified in ERC-165. This function  uses less than 30,000 gas.",
        "params": {
          "interfaceID": "The interface identifier, as specified in ERC-165"
        },
        "returns": {
          "_0": "`true` if the contract implements `interfaceID` and  `interfaceID` is not 0xffffffff, `false` otherwise"
        }
      }
    },
    "version": 1
  },
  "userdoc": {
    "kind": "user",
    "methods": {
      "supportsInterface(bytes4)": {
        "notice": "Query if a contract implements an interface"
      }
    },
    "version": 1
  }
}