{
  "contractName": "ERC721",
  "abi": [
    {
      "anonymous": false,
      "inputs": [
        {
          "indexed": true,
          "internalType": "address",
          "name": "from",
          "type": "address"
        },
        {
          "indexed": true,
          "internalType": "address",
          "name": "to",
          "type": "address"
        },
        {
          "indexed": true,
          "internalType": "uint256",
          "name": "tokenId",
          "type": "uint256"
        }
      ],
      "name": "Transfer",
      "type": "event"
    },
    {
      "inputs": [
        {
          "internalType": "address",
          "name": "_owner",
          "type": "address"
        }
      ],
      "name": "balanceOf",
      "outputs": [
        {
          "internalType": "uint256",
          "name": "",
          "type": "uint256"
        }
      ],
      "stateMutability": "view",
      "type": "function"
    },
    {
      "inputs": [
        {
          "internalType": "uint256",
          "name": "_tokenId",
          "type": "uint256"
        }
      ],
      "name": "ownerOf",
      "outputs": [
        {
          "internalType": "address",
          "name": "",
          "type": "address"
        }
      ],
      "stateMutability": "view",
      "type": "function"
    }
  ],
  "bytecode": "0x608060405234801561001057600080fd5b506101f4806100206000396000f3fe608060405234801561001057600080fd5b50600436106100365760003560e01c80636352211e1461003b57806370a082311461006b575b600080fd5b61004e610049366004610175565b61008c565b6040516001600160a01b0390911681526020015b60405180910390f35b61007e61007936600461018e565b61010a565b604051908152602001610062565b6000818152602081905260408120546001600160a01b0316806100ed5760405162461bcd60e51b8152602060048201526014602482015273043616e206e6f74206265206164647265737320360641b60448201526064015b60405180910390fd5b50506000908152602081905260409020546001600160a01b031690565b60006001600160a01b0382166101595760405162461bcd60e51b8152602060048201526014602482015273043616e206e6f74206265206164647265737320360641b60448201526064016100e4565b506001600160a01b031660009081526001602052604090205490565b60006020828403121561018757600080fd5b5035919050565b6000602082840312156101a057600080fd5b81356001600160a01b03811681146101b757600080fd5b939250505056fea2646970667358221220099333c4eb0affc53ea3463425e09894953c8a1bd9efe50d56361640845143dd64736f6c63430008090033",
  "immutableReferences": {},
  "source": "// SPDX-License-Identifier: MIT\npragma solidity ^0.8.0;\n\n  /*\n    mint function\n    1) nft to point to an address\n    2) keep track of token ids\n    3) keep track of token owner addresses to token ids\n    4) keep track of how many tokens an owner address has\n    5) create event that emits a transfer log\n  */ \n\ncontract ERC721 {\n\n  // event creates logs\n  event Transfer(\n    address indexed from,\n    address indexed to,\n    uint256 indexed tokenId\n  );\n\n  mapping(uint256 => address) private _tokenOwner;\n  mapping(address => uint256) private _ownedTokensCount;\n\n  function _exists(uint256 tokenId) internal view returns(bool) {\n    return _tokenOwner[tokenId] != address(0);\n  }\n\n  function balanceOf(address _owner) external view returns (uint256) {\n    require(_owner != address(0), 'Can not be address 0');\n    return _ownedTokensCount[_owner];\n  }\n\n  function ownerOf(uint256 _tokenId) external view returns (address) {\n    address owner = _tokenOwner[_tokenId];\n    require(owner != address(0), 'Can not be address 0');\n    return _tokenOwner[_tokenId];\n  }\n\n  function _mint(address to, uint256 tokenId) internal virtual {\n    // address is not address 0\n    require(to != address(0), \"ERC721: minting to zero address\");\n\n    // token has not been minted before\n    require(!_exists(tokenId), \"ERC721: Token minted before\");\n\n    _tokenOwner[tokenId] = to;\n    _ownedTokensCount[to] += 1;\n    emit Transfer(address(0), to, tokenId);\n  }\n}",
  "sourcePath": "/Users/otavioensa/Desktop/projects/nft class/nft-marketplace-starter-kit/src/contracts/ERC721.sol",
  "compiler": {
    "name": "solc",
    "version": "0.8.9+commit.e5eed63a.Emscripten.clang"
  },
  "schemaVersion": "3.4.1",
  "updatedAt": "2021-10-22T20:00:45.814Z",
  "devdoc": {
    "kind": "dev",
    "methods": {},
    "version": 1
  },
  "userdoc": {
    "kind": "user",
    "methods": {},
    "version": 1
  }
}