{
  "contractName": "ERC721Enumerable",
  "abi": [
    {
      "anonymous": false,
      "inputs": [
        {
          "indexed": true,
          "internalType": "address",
          "name": "from",
          "type": "address"
        },
        {
          "indexed": true,
          "internalType": "address",
          "name": "to",
          "type": "address"
        },
        {
          "indexed": true,
          "internalType": "uint256",
          "name": "tokenId",
          "type": "uint256"
        }
      ],
      "name": "Transfer",
      "type": "event"
    },
    {
      "inputs": [
        {
          "internalType": "address",
          "name": "_owner",
          "type": "address"
        }
      ],
      "name": "balanceOf",
      "outputs": [
        {
          "internalType": "uint256",
          "name": "",
          "type": "uint256"
        }
      ],
      "stateMutability": "view",
      "type": "function"
    },
    {
      "inputs": [
        {
          "internalType": "uint256",
          "name": "_tokenId",
          "type": "uint256"
        }
      ],
      "name": "ownerOf",
      "outputs": [
        {
          "internalType": "address",
          "name": "",
          "type": "address"
        }
      ],
      "stateMutability": "view",
      "type": "function"
    },
    {
      "inputs": [],
      "name": "totalSupply",
      "outputs": [
        {
          "internalType": "uint256",
          "name": "",
          "type": "uint256"
        }
      ],
      "stateMutability": "view",
      "type": "function"
    }
  ],
  "bytecode": "0x608060405234801561001057600080fd5b50610203806100206000396000f3fe608060405234801561001057600080fd5b50600436106100415760003560e01c806318160ddd146100465780636352211e1461005d57806370a0823114610088575b600080fd5b6002545b6040519081526020015b60405180910390f35b61007061006b366004610184565b61009b565b6040516001600160a01b039091168152602001610054565b61004a61009636600461019d565b610119565b6000818152602081905260408120546001600160a01b0316806100fc5760405162461bcd60e51b8152602060048201526014602482015273043616e206e6f74206265206164647265737320360641b60448201526064015b60405180910390fd5b50506000908152602081905260409020546001600160a01b031690565b60006001600160a01b0382166101685760405162461bcd60e51b8152602060048201526014602482015273043616e206e6f74206265206164647265737320360641b60448201526064016100f3565b506001600160a01b031660009081526001602052604090205490565b60006020828403121561019657600080fd5b5035919050565b6000602082840312156101af57600080fd5b81356001600160a01b03811681146101c657600080fd5b939250505056fea26469706673582212203675443acb7352567843b014ea5bcb8bd48d1a366c412841016732dc6fa11f8564736f6c63430008090033",
  "immutableReferences": {},
  "source": "// SPDX-License-Identifier: MIT\npragma solidity ^0.8.0;\n\nimport './ERC721.sol';\n\n\ncontract ERC721Enumerable is ERC721 {\n\n  uint256[] private _allTokens;\n\n  mapping(uint256 => uint256) private _allTokensIndex;\n  mapping(address => uint256[]) private _ownedTokens;\n  mapping(uint256 => uint256) private _ownedTokensIndex;\n\n  function totalSupply() public view returns (uint256) {\n    return _allTokens.length;\n  }\n\n\n  // function tokenByIndex(uint256 _index) external view returns (uint256);\n\n  // function tokenOfOwnerByIndex(address _owner, uint256 _index) external view returns (uint256);\n\n  function _mint(address to, uint256 tokenId) internal override(ERC721) {\n    super._mint(to, tokenId);\n    _addTokensToTotalSupply(tokenId);\n  }\n\n  function _addTokensToTotalSupply(uint256 tokenId) private {\n    _allTokens.push(tokenId);\n  }\n}",
  "sourcePath": "/Users/otavioensa/Desktop/projects/nft class/nft-marketplace-starter-kit/src/contracts/ERC721Enumerable.sol",
  "compiler": {
    "name": "solc",
    "version": "0.8.9+commit.e5eed63a.Emscripten.clang"
  },
  "schemaVersion": "3.4.1",
  "updatedAt": "2021-10-22T20:00:45.819Z",
  "devdoc": {
    "kind": "dev",
    "methods": {},
    "version": 1
  },
  "userdoc": {
    "kind": "user",
    "methods": {},
    "version": 1
  }
}