{
  "contractName": "ERC721",
  "abi": [
    {
      "inputs": [],
      "stateMutability": "nonpayable",
      "type": "constructor"
    },
    {
      "anonymous": false,
      "inputs": [
        {
          "indexed": true,
          "internalType": "address",
          "name": "_owner",
          "type": "address"
        },
        {
          "indexed": true,
          "internalType": "address",
          "name": "_approved",
          "type": "address"
        },
        {
          "indexed": true,
          "internalType": "uint256",
          "name": "_tokenId",
          "type": "uint256"
        }
      ],
      "name": "Approval",
      "type": "event"
    },
    {
      "anonymous": false,
      "inputs": [
        {
          "indexed": true,
          "internalType": "address",
          "name": "_from",
          "type": "address"
        },
        {
          "indexed": true,
          "internalType": "address",
          "name": "_to",
          "type": "address"
        },
        {
          "indexed": true,
          "internalType": "uint256",
          "name": "_tokenId",
          "type": "uint256"
        }
      ],
      "name": "Transfer",
      "type": "event"
    },
    {
      "inputs": [
        {
          "internalType": "bytes4",
          "name": "interfaceID",
          "type": "bytes4"
        }
      ],
      "name": "supportsInterface",
      "outputs": [
        {
          "internalType": "bool",
          "name": "",
          "type": "bool"
        }
      ],
      "stateMutability": "view",
      "type": "function"
    },
    {
      "inputs": [
        {
          "internalType": "address",
          "name": "_owner",
          "type": "address"
        }
      ],
      "name": "balanceOf",
      "outputs": [
        {
          "internalType": "uint256",
          "name": "",
          "type": "uint256"
        }
      ],
      "stateMutability": "view",
      "type": "function"
    },
    {
      "inputs": [
        {
          "internalType": "uint256",
          "name": "_tokenId",
          "type": "uint256"
        }
      ],
      "name": "ownerOf",
      "outputs": [
        {
          "internalType": "address",
          "name": "",
          "type": "address"
        }
      ],
      "stateMutability": "view",
      "type": "function"
    },
    {
      "inputs": [
        {
          "internalType": "address",
          "name": "_from",
          "type": "address"
        },
        {
          "internalType": "address",
          "name": "_to",
          "type": "address"
        },
        {
          "internalType": "uint256",
          "name": "_tokenId",
          "type": "uint256"
        }
      ],
      "name": "transferFrom",
      "outputs": [],
      "stateMutability": "nonpayable",
      "type": "function"
    },
    {
      "inputs": [
        {
          "internalType": "address",
          "name": "_to",
          "type": "address"
        },
        {
          "internalType": "uint256",
          "name": "_tokenId",
          "type": "uint256"
        }
      ],
      "name": "approve",
      "outputs": [],
      "stateMutability": "nonpayable",
      "type": "function"
    }
  ],
  "bytecode": "0x608060405234801561001057600080fd5b5061003a7f01ffc9a7a5cef8baa21ed3c5c0d7e23accb804b619e9333b597f47a0d84076e2610068565b6100637f92d8a794d910422f7549620ed7a8f75c2c42d18032da05c61ed89586344e965e610068565b6100eb565b6001600160e01b031980821614156100c65760405162461bcd60e51b815260206004820152601960248201527f496e76616c696420696e74657266616365207265717565737400000000000000604482015260640160405180910390fd5b6001600160e01b0319166000908152602081905260409020805460ff19166001179055565b610707806100fa6000396000f3fe608060405234801561001057600080fd5b50600436106100575760003560e01c806301ffc9a71461005c578063095ea7b31461009e57806323b872dd146100b35780636352211e146100c657806370a08231146100f1575b600080fd5b61008961006a3660046105a5565b6001600160e01b03191660009081526020819052604090205460ff1690565b60405190151581526020015b60405180910390f35b6100b16100ac3660046105f2565b610112565b005b6100b16100c136600461061c565b610256565b6100d96100d4366004610658565b6102b1565b6040516001600160a01b039091168152602001610095565b6101046100ff366004610671565b61032a565b604051908152602001610095565b600061011d826102b1565b9050806001600160a01b0316836001600160a01b031614156101865760405162461bcd60e51b815260206004820181905260248201527f4572726f723a20417070726f76616c20746f2063757272656e74206f776e657260448201526064015b60405180910390fd5b336001600160a01b038216146101fa5760405162461bcd60e51b815260206004820152603360248201527f4572726f723a2043757272656e742063616c6c6572206973206e6f74207468656044820152721037bbb732b91037b3103a3432903a37b5b2b760691b606482015260840161017d565b60008281526003602052604080822080546001600160a01b0319166001600160a01b0387811691821790925591518593918516917f8c5be1e5ebec7d5bd14f71427d1e84f3dd0314c0f7b2291e5b200ac8c7c3b92591a4505050565b6102603382610395565b6102a15760405162461bcd60e51b8152602060048201526012602482015271135d5cdd081a185d9948185c1c1c9bdd985b60721b604482015260640161017d565b6102ac838383610412565b505050565b6000818152600160205260408120546001600160a01b03168061030d5760405162461bcd60e51b8152602060048201526014602482015273043616e206e6f74206265206164647265737320360641b604482015260640161017d565b50506000908152600160205260409020546001600160a01b031690565b60006001600160a01b0382166103795760405162461bcd60e51b8152602060048201526014602482015273043616e206e6f74206265206164647265737320360641b604482015260640161017d565b506001600160a01b031660009081526002602052604090205490565b6000818152600160205260408120546001600160a01b03166103f05760405162461bcd60e51b8152602060048201526014602482015273151bdad95b88191bd95cc81b9bdd08195e1a5cdd60621b604482015260640161017d565b60006103fb836102b1565b6001600160a01b0385811691161491505092915050565b6001600160a01b0382166104685760405162461bcd60e51b815260206004820181905260248201527f4552433732313a205472616e7366657220746f207a65726f2061646472657373604482015260640161017d565b826001600160a01b031661047b826102b1565b6001600160a01b0316146104ed5760405162461bcd60e51b815260206004820152603360248201527f547279696e6720746f207472616e73666572206120746f6b656e20746865206160448201527232323932b9b9903237b2b9903737ba1037bbb760691b606482015260840161017d565b6001600160a01b03831660009081526002602052604081208054600192906105169084906106a2565b90915550506001600160a01b03821660009081526002602052604081208054600192906105449084906106b9565b909155505060008181526001602052604080822080546001600160a01b0319166001600160a01b0386811691821790925591518493918716917fddf252ad1be2c89b69c2b068fc378daa952ba7f163c4a11628f55a4df523b3ef91a4505050565b6000602082840312156105b757600080fd5b81356001600160e01b0319811681146105cf57600080fd5b9392505050565b80356001600160a01b03811681146105ed57600080fd5b919050565b6000806040838503121561060557600080fd5b61060e836105d6565b946020939093013593505050565b60008060006060848603121561063157600080fd5b61063a846105d6565b9250610648602085016105d6565b9150604084013590509250925092565b60006020828403121561066a57600080fd5b5035919050565b60006020828403121561068357600080fd5b6105cf826105d6565b634e487b7160e01b600052601160045260246000fd5b6000828210156106b4576106b461068c565b500390565b600082198211156106cc576106cc61068c565b50019056fea26469706673582212202405ff11ab2acf31d594eb78954d7647dafe67769364dde8b692f975473ac25e64736f6c634300080a0033",
  "immutableReferences": {},
  "source": "// SPDX-License-Identifier: MIT\npragma solidity ^0.8.4;\n\nimport './ERC165.sol';\nimport './interfaces/IERC721.sol';\n\n  /*\n    mint function\n    1) nft to point to an address\n    2) keep track of token ids\n    3) keep track of token owner addresses to token ids\n    4) keep track of how many tokens an owner address has\n    5) create event that emits a transfer log\n  */ \n\ncontract ERC721 is ERC165, IERC721 {\n  mapping(uint256 => address) private _tokenOwner;\n  mapping(address => uint256) private _ownedTokensCount;\n  mapping(uint256 => address) private _tokenApprovals;\n\n  constructor() {\n    _registerInterface(bytes4(keccak256('balanceOf(bytes4)')^keccak256('ownerOf(bytes4)')^keccak256('transferFrom(bytes4)')));\n  }\n\n  function _exists(uint256 tokenId) internal view returns(bool) {\n    return _tokenOwner[tokenId] != address(0);\n  }\n\n  function balanceOf(address _owner) public override view returns (uint256) {\n    require(_owner != address(0), 'Can not be address 0');\n    return _ownedTokensCount[_owner];\n  }\n\n  function ownerOf(uint256 _tokenId) public override view returns (address) {\n    address owner = _tokenOwner[_tokenId];\n    require(owner != address(0), 'Can not be address 0');\n    return _tokenOwner[_tokenId];\n  }\n\n  function _mint(address to, uint256 tokenId) internal virtual {\n    // address is not address 0\n    require(to != address(0), 'ERC721: minting to zero address');\n\n    // token has not been minted before\n    require(!_exists(tokenId), 'ERC721: Token minted before');\n\n    _tokenOwner[tokenId] = to;\n    _ownedTokensCount[to] += 1;\n    emit Transfer(address(0), to, tokenId);\n  }\n\n  function _transferFrom(address _from, address _to, uint256 _tokenId) internal {\n    require(_to != address(0), 'ERC721: Transfer to zero address');\n    require(ownerOf(_tokenId) == _from, 'Trying to transfer a token the address does not own');\n\n    _ownedTokensCount[_from] -= 1;\n    _ownedTokensCount[_to] += 1;\n\n    _tokenOwner[_tokenId] = _to;\n\n    emit Transfer(_from, _to, _tokenId); \n  }\n\n\n  function transferFrom(address _from, address _to, uint256 _tokenId) override public {\n    require(isApprovedOrOwner(msg.sender, _tokenId), 'Must have approval');\n    _transferFrom(_from, _to, _tokenId);\n  }\n\n  function approve(address _to, uint256 _tokenId) public {\n    address owner = ownerOf(_tokenId);\n    require(_to != owner, 'Error: Approval to current owner');\n    require(msg.sender == owner, 'Error: Current caller is not the owner of the token');\n\n    _tokenApprovals[_tokenId] = _to;\n\n    emit Approval(owner, _to, _tokenId);\n  }\n\n  function isApprovedOrOwner(address spender, uint256 tokenId) internal view returns (bool) {\n    require(_exists(tokenId), 'Token does not exist');\n    address owner = ownerOf(tokenId);\n    return (spender == owner);\n  }\n}",
  "sourcePath": "/Users/otavioensa/Desktop/projects/nft class/nft-marketplace-starter-kit/src/contracts/ERC721.sol",
  "compiler": {
    "name": "solc",
    "version": "0.8.10+commit.fc410830.Emscripten.clang"
  },
  "schemaVersion": "3.4.3",
  "updatedAt": "2021-12-09T17:42:58.623Z",
  "devdoc": {
    "kind": "dev",
    "methods": {
      "supportsInterface(bytes4)": {
        "details": "Interface identification is specified in ERC-165. This function  uses less than 30,000 gas.",
        "params": {
          "interfaceID": "The interface identifier, as specified in ERC-165"
        },
        "returns": {
          "_0": "`true` if the contract implements `interfaceID` and  `interfaceID` is not 0xffffffff, `false` otherwise"
        }
      }
    },
    "version": 1
  },
  "userdoc": {
    "kind": "user",
    "methods": {
      "supportsInterface(bytes4)": {
        "notice": "Query if a contract implements an interface"
      }
    },
    "version": 1
  }
}