{
  "contractName": "ERC721Metadata",
  "abi": [
    {
      "inputs": [
        {
          "internalType": "string",
          "name": "named",
          "type": "string"
        },
        {
          "internalType": "string",
          "name": "symbolified",
          "type": "string"
        }
      ],
      "stateMutability": "nonpayable",
      "type": "constructor"
    },
    {
      "inputs": [],
      "name": "name",
      "outputs": [
        {
          "internalType": "string",
          "name": "",
          "type": "string"
        }
      ],
      "stateMutability": "view",
      "type": "function"
    },
    {
      "inputs": [],
      "name": "symbol",
      "outputs": [
        {
          "internalType": "string",
          "name": "",
          "type": "string"
        }
      ],
      "stateMutability": "view",
      "type": "function"
    }
  ],
  "bytecode": "0x608060405234801561001057600080fd5b5060405161042e38038061042e83398101604081905261002f916101b9565b815161004290600090602085019061005e565b50805161005690600190602084019061005e565b505050610257565b82805461006a9061021c565b90600052602060002090601f01602090048101928261008c57600085556100d2565b82601f106100a557805160ff19168380011785556100d2565b828001600101855582156100d2579182015b828111156100d25782518255916020019190600101906100b7565b506100de9291506100e2565b5090565b5b808211156100de57600081556001016100e3565b634e487b7160e01b600052604160045260246000fd5b600082601f83011261011e57600080fd5b81516001600160401b0380821115610138576101386100f7565b604051601f8301601f19908116603f01168101908282118183101715610160576101606100f7565b8160405283815260209250868385880101111561017c57600080fd5b600091505b8382101561019e5785820183015181830184015290820190610181565b838211156101af5760008385830101525b9695505050505050565b600080604083850312156101cc57600080fd5b82516001600160401b03808211156101e357600080fd5b6101ef8683870161010d565b9350602085015191508082111561020557600080fd5b506102128582860161010d565b9150509250929050565b600181811c9082168061023057607f821691505b6020821081141561025157634e487b7160e01b600052602260045260246000fd5b50919050565b6101c8806102666000396000f3fe608060405234801561001057600080fd5b50600436106100365760003560e01c806306fdde031461003b57806395d89b4114610059575b600080fd5b610043610061565b6040516100509190610102565b60405180910390f35b6100436100f3565b60606000805461007090610157565b80601f016020809104026020016040519081016040528092919081815260200182805461009c90610157565b80156100e95780601f106100be576101008083540402835291602001916100e9565b820191906000526020600020905b8154815290600101906020018083116100cc57829003601f168201915b5050505050905090565b60606001805461007090610157565b600060208083528351808285015260005b8181101561012f57858101830151858201604001528201610113565b81811115610141576000604083870101525b50601f01601f1916929092016040019392505050565b600181811c9082168061016b57607f821691505b6020821081141561018c57634e487b7160e01b600052602260045260246000fd5b5091905056fea2646970667358221220284a0f3af4f4e198b9cb7b37d75b89ab88ef2f582fc7bdc24c7833cd86d69aa764736f6c63430008090033",
  "immutableReferences": {},
  "source": "// SPDX-License-Identifier: MIT\npragma solidity ^0.8.0;\n\ncontract ERC721Metadata {\n\n  string private _name;\n  string private _symbol;\n\n  // need the memory keyword when using strings into functions\n  constructor(string memory named, string memory symbolified) {\n    _name = named;\n    _symbol = symbolified;\n  }\n\n  // view = immutable\n  function name() external view returns (string memory) {\n    return _name;\n  }\n\n  function symbol() external view returns (string memory) {\n    return _symbol;\n  }\n}",
  "sourcePath": "/Users/otavioensa/Desktop/projects/nft class/nft-marketplace-starter-kit/src/contracts/ERC721Metadata.sol",
  "compiler": {
    "name": "solc",
    "version": "0.8.9+commit.e5eed63a.Emscripten.clang"
  },
  "schemaVersion": "3.4.1",
  "updatedAt": "2021-10-19T14:31:35.754Z",
  "devdoc": {
    "kind": "dev",
    "methods": {},
    "version": 1
  },
  "userdoc": {
    "kind": "user",
    "methods": {},
    "version": 1
  }
}