{
  "contractName": "KryptoBird",
  "abi": [
    {
      "inputs": [],
      "stateMutability": "nonpayable",
      "type": "constructor"
    },
    {
      "anonymous": false,
      "inputs": [
        {
          "indexed": true,
          "internalType": "address",
          "name": "_owner",
          "type": "address"
        },
        {
          "indexed": true,
          "internalType": "address",
          "name": "_approved",
          "type": "address"
        },
        {
          "indexed": true,
          "internalType": "uint256",
          "name": "_tokenId",
          "type": "uint256"
        }
      ],
      "name": "Approval",
      "type": "event"
    },
    {
      "anonymous": false,
      "inputs": [
        {
          "indexed": true,
          "internalType": "address",
          "name": "_from",
          "type": "address"
        },
        {
          "indexed": true,
          "internalType": "address",
          "name": "_to",
          "type": "address"
        },
        {
          "indexed": true,
          "internalType": "uint256",
          "name": "_tokenId",
          "type": "uint256"
        }
      ],
      "name": "Transfer",
      "type": "event"
    },
    {
      "inputs": [
        {
          "internalType": "uint256",
          "name": "",
          "type": "uint256"
        }
      ],
      "name": "KryptoBirdz",
      "outputs": [
        {
          "internalType": "string",
          "name": "",
          "type": "string"
        }
      ],
      "stateMutability": "view",
      "type": "function",
      "constant": true
    },
    {
      "inputs": [
        {
          "internalType": "address",
          "name": "_to",
          "type": "address"
        },
        {
          "internalType": "uint256",
          "name": "_tokenId",
          "type": "uint256"
        }
      ],
      "name": "approve",
      "outputs": [],
      "stateMutability": "nonpayable",
      "type": "function"
    },
    {
      "inputs": [
        {
          "internalType": "address",
          "name": "_owner",
          "type": "address"
        }
      ],
      "name": "balanceOf",
      "outputs": [
        {
          "internalType": "uint256",
          "name": "",
          "type": "uint256"
        }
      ],
      "stateMutability": "view",
      "type": "function",
      "constant": true
    },
    {
      "inputs": [],
      "name": "name",
      "outputs": [
        {
          "internalType": "string",
          "name": "",
          "type": "string"
        }
      ],
      "stateMutability": "view",
      "type": "function",
      "constant": true
    },
    {
      "inputs": [
        {
          "internalType": "uint256",
          "name": "_tokenId",
          "type": "uint256"
        }
      ],
      "name": "ownerOf",
      "outputs": [
        {
          "internalType": "address",
          "name": "",
          "type": "address"
        }
      ],
      "stateMutability": "view",
      "type": "function",
      "constant": true
    },
    {
      "inputs": [
        {
          "internalType": "bytes4",
          "name": "interfaceID",
          "type": "bytes4"
        }
      ],
      "name": "supportsInterface",
      "outputs": [
        {
          "internalType": "bool",
          "name": "",
          "type": "bool"
        }
      ],
      "stateMutability": "view",
      "type": "function",
      "constant": true
    },
    {
      "inputs": [],
      "name": "symbol",
      "outputs": [
        {
          "internalType": "string",
          "name": "",
          "type": "string"
        }
      ],
      "stateMutability": "view",
      "type": "function",
      "constant": true
    },
    {
      "inputs": [
        {
          "internalType": "uint256",
          "name": "_index",
          "type": "uint256"
        }
      ],
      "name": "tokenByIndex",
      "outputs": [
        {
          "internalType": "uint256",
          "name": "",
          "type": "uint256"
        }
      ],
      "stateMutability": "view",
      "type": "function",
      "constant": true
    },
    {
      "inputs": [
        {
          "internalType": "address",
          "name": "_owner",
          "type": "address"
        },
        {
          "internalType": "uint256",
          "name": "_index",
          "type": "uint256"
        }
      ],
      "name": "tokenOfOwnerByIndex",
      "outputs": [
        {
          "internalType": "uint256",
          "name": "",
          "type": "uint256"
        }
      ],
      "stateMutability": "view",
      "type": "function",
      "constant": true
    },
    {
      "inputs": [],
      "name": "totalSupply",
      "outputs": [
        {
          "internalType": "uint256",
          "name": "",
          "type": "uint256"
        }
      ],
      "stateMutability": "view",
      "type": "function",
      "constant": true
    },
    {
      "inputs": [
        {
          "internalType": "address",
          "name": "_from",
          "type": "address"
        },
        {
          "internalType": "address",
          "name": "_to",
          "type": "address"
        },
        {
          "internalType": "uint256",
          "name": "_tokenId",
          "type": "uint256"
        }
      ],
      "name": "transferFrom",
      "outputs": [],
      "stateMutability": "nonpayable",
      "type": "function"
    },
    {
      "inputs": [
        {
          "internalType": "string",
          "name": "_kryptoBird",
          "type": "string"
        }
      ],
      "name": "mint",
      "outputs": [],
      "stateMutability": "nonpayable",
      "type": "function"
    }
  ],
  "bytecode": "0x60806040523480156200001157600080fd5b506040518060400160405280600a81526020016912dc9e5c1d1bd89a5c9960b21b8152506040518060400160405280600681526020016525a124a9222d60d11b8152508181620000877f01ffc9a7a5cef8baa21ed3c5c0d7e23accb804b619e9333b597f47a0d84076e26200014060201b60201c565b620000b27f6c5b7360b116f8fd1d2a1ccb905de5c6a9e91e31b88b8db3cd997e184f357e9f62000140565b8151620000c7906001906020850190620001c4565b508051620000dd906002906020840190620001c4565b506200010d91507f92d8a794d910422f7549620ed7a8f75c2c42d18032da05c61ed89586344e965e905062000140565b620001387f2aa3f4710f58b303977da296b62cadae054c8971d883298d8ed6c6c0565c13c162000140565b5050620002a7565b6001600160e01b031980821614156200019f5760405162461bcd60e51b815260206004820152601960248201527f496e76616c696420696e74657266616365207265717565737400000000000000604482015260640160405180910390fd5b6001600160e01b0319166000908152602081905260409020805460ff19166001179055565b828054620001d2906200026a565b90600052602060002090601f016020900481019282620001f6576000855562000241565b82601f106200021157805160ff191683800117855562000241565b8280016001018555821562000241579182015b828111156200024157825182559160200191906001019062000224565b506200024f92915062000253565b5090565b5b808211156200024f576000815560010162000254565b600181811c908216806200027f57607f821691505b60208210811415620002a157634e487b7160e01b600052602260045260246000fd5b50919050565b610f3e80620002b76000396000f3fe608060405234801561001057600080fd5b50600436106100b45760003560e01c80634f6ccce7116100715780634f6ccce71461015d5780636352211e1461017057806370a082311461019b57806395d89b41146101ae578063a3a1ff58146101b6578063d85d3d27146101c957600080fd5b806301ffc9a7146100b957806306fdde03146100fb578063095ea7b31461011057806318160ddd1461012557806323b872dd146101375780632f745c591461014a575b600080fd5b6100e66100c7366004610c45565b6001600160e01b03191660009081526020819052604090205460ff1690565b60405190151581526020015b60405180910390f35b6101036101dc565b6040516100f29190610ca6565b61012361011e366004610cf5565b61026e565b005b6006545b6040519081526020016100f2565b610123610145366004610d1f565b6103b2565b610129610158366004610cf5565b61040d565b61012961016b366004610d5b565b6104a3565b61018361017e366004610d5b565b610521565b6040516001600160a01b0390911681526020016100f2565b6101296101a9366004610d74565b61059a565b610103610605565b6101036101c4366004610d5b565b610614565b6101236101d7366004610da5565b6106c0565b6060600180546101eb90610e56565b80601f016020809104026020016040519081016040528092919081815260200182805461021790610e56565b80156102645780601f1061023957610100808354040283529160200191610264565b820191906000526020600020905b81548152906001019060200180831161024757829003601f168201915b5050505050905090565b600061027982610521565b9050806001600160a01b0316836001600160a01b031614156102e25760405162461bcd60e51b815260206004820181905260248201527f4572726f723a20417070726f76616c20746f2063757272656e74206f776e657260448201526064015b60405180910390fd5b336001600160a01b038216146103565760405162461bcd60e51b815260206004820152603360248201527f4572726f723a2043757272656e742063616c6c6572206973206e6f74207468656044820152721037bbb732b91037b3103a3432903a37b5b2b760691b60648201526084016102d9565b60008281526005602052604080822080546001600160a01b0319166001600160a01b0387811691821790925591518593918516917f8c5be1e5ebec7d5bd14f71427d1e84f3dd0314c0f7b2291e5b200ac8c7c3b92591a4505050565b6103bc33826107c8565b6103fd5760405162461bcd60e51b8152602060048201526012602482015271135d5cdd081a185d9948185c1c1c9bdd985b60721b60448201526064016102d9565b610408838383610845565b505050565b60006104188361059a565b82106104665760405162461bcd60e51b815260206004820152601960248201527f6f776e657220696e646578206f7574206f6620626f756e64730000000000000060448201526064016102d9565b6001600160a01b038316600090815260086020526040902080548390811061049057610490610e91565b9060005260206000200154905092915050565b60006104ae60065490565b82106104fc5760405162461bcd60e51b815260206004820152601d60248201527f676c6f62616c20696e646578206973206f7574206f6620626f756e647300000060448201526064016102d9565b6006828154811061050f5761050f610e91565b90600052602060002001549050919050565b6000818152600360205260408120546001600160a01b03168061057d5760405162461bcd60e51b8152602060048201526014602482015273043616e206e6f74206265206164647265737320360641b60448201526064016102d9565b50506000908152600360205260409020546001600160a01b031690565b60006001600160a01b0382166105e95760405162461bcd60e51b8152602060048201526014602482015273043616e206e6f74206265206164647265737320360641b60448201526064016102d9565b506001600160a01b031660009081526004602052604090205490565b6060600280546101eb90610e56565b600a818154811061062457600080fd5b90600052602060002001600091509050805461063f90610e56565b80601f016020809104026020016040519081016040528092919081815260200182805461066b90610e56565b80156106b85780601f1061068d576101008083540402835291602001916106b8565b820191906000526020600020905b81548152906001019060200180831161069b57829003601f168201915b505050505081565b600b816040516106d09190610ea7565b9081526040519081900360200190205460ff16156107305760405162461bcd60e51b815260206004820181905260248201527f4572726f723a204b727970746f6269726420616c72656164792065786973747360448201526064016102d9565b600a80546001810182556000919091528151610773917fc65a7bb8d6351c1cf70c95a316cc6a92839c986682d98bc35f958f4883f9d2a801906020840190610bac565b50600a5460009061078690600190610ed9565b905061079233826109d8565b6001600b836040516107a49190610ea7565b908152604051908190036020019020805491151560ff199092169190911790555050565b6000818152600360205260408120546001600160a01b03166108235760405162461bcd60e51b8152602060048201526014602482015273151bdad95b88191bd95cc81b9bdd08195e1a5cdd60621b60448201526064016102d9565b600061082e83610521565b6001600160a01b0385811691161491505092915050565b6001600160a01b03821661089b5760405162461bcd60e51b815260206004820181905260248201527f4552433732313a205472616e7366657220746f207a65726f206164647265737360448201526064016102d9565b826001600160a01b03166108ae82610521565b6001600160a01b0316146109205760405162461bcd60e51b815260206004820152603360248201527f547279696e6720746f207472616e73666572206120746f6b656e20746865206160448201527232323932b9b9903237b2b9903737ba1037bbb760691b60648201526084016102d9565b6001600160a01b0383166000908152600460205260408120805460019290610949908490610ed9565b90915550506001600160a01b0382166000908152600460205260408120805460019290610977908490610ef0565b909155505060008181526003602052604080822080546001600160a01b0319166001600160a01b0386811691821790925591518493918716917fddf252ad1be2c89b69c2b068fc378daa952ba7f163c4a11628f55a4df523b3ef91a4505050565b6109e28282610a69565b610a2a81600680546000838152600760205260408120829055600182018355919091527ff652222313e28459528d920b65115c16c04f3efc82aaedc97be59f3f377c0d3f0155565b6001600160a01b039190911660009081526008602081815260408084208054868652600984529185208290559282526001810183559183529091200155565b6001600160a01b038216610abf5760405162461bcd60e51b815260206004820152601f60248201527f4552433732313a206d696e74696e6720746f207a65726f20616464726573730060448201526064016102d9565b6000818152600360205260409020546001600160a01b031615610b245760405162461bcd60e51b815260206004820152601b60248201527f4552433732313a20546f6b656e206d696e746564206265666f7265000000000060448201526064016102d9565b600081815260036020908152604080832080546001600160a01b0319166001600160a01b038716908117909155835260049091528120805460019290610b6b908490610ef0565b909155505060405181906001600160a01b038416906000907fddf252ad1be2c89b69c2b068fc378daa952ba7f163c4a11628f55a4df523b3ef908290a45050565b828054610bb890610e56565b90600052602060002090601f016020900481019282610bda5760008555610c20565b82601f10610bf357805160ff1916838001178555610c20565b82800160010185558215610c20579182015b82811115610c20578251825591602001919060010190610c05565b50610c2c929150610c30565b5090565b5b80821115610c2c5760008155600101610c31565b600060208284031215610c5757600080fd5b81356001600160e01b031981168114610c6f57600080fd5b9392505050565b60005b83811015610c91578181015183820152602001610c79565b83811115610ca0576000848401525b50505050565b6020815260008251806020840152610cc5816040850160208701610c76565b601f01601f19169190910160400192915050565b80356001600160a01b0381168114610cf057600080fd5b919050565b60008060408385031215610d0857600080fd5b610d1183610cd9565b946020939093013593505050565b600080600060608486031215610d3457600080fd5b610d3d84610cd9565b9250610d4b60208501610cd9565b9150604084013590509250925092565b600060208284031215610d6d57600080fd5b5035919050565b600060208284031215610d8657600080fd5b610c6f82610cd9565b634e487b7160e01b600052604160045260246000fd5b600060208284031215610db757600080fd5b813567ffffffffffffffff80821115610dcf57600080fd5b818401915084601f830112610de357600080fd5b813581811115610df557610df5610d8f565b604051601f8201601f19908116603f01168101908382118183101715610e1d57610e1d610d8f565b81604052828152876020848701011115610e3657600080fd5b826020860160208301376000928101602001929092525095945050505050565b600181811c90821680610e6a57607f821691505b60208210811415610e8b57634e487b7160e01b600052602260045260246000fd5b50919050565b634e487b7160e01b600052603260045260246000fd5b60008251610eb9818460208701610c76565b9190910192915050565b634e487b7160e01b600052601160045260246000fd5b600082821015610eeb57610eeb610ec3565b500390565b60008219821115610f0357610f03610ec3565b50019056fea26469706673582212209205a3ce05a67cefcae80afce34a9908df218c264ea30dbf214884ebf7ce400364736f6c634300080a0033",
  "immutableReferences": {},
  "source": "// SPDX-License-Identifier: MIT\npragma solidity ^0.8.4;\n\nimport './ERC721Connector.sol';\n\ncontract KryptoBird is ERC721Connector {\n\n  string[] public KryptoBirdz;\n\n  mapping(string => bool) _kryptoBirdzExists;\n\n  constructor() ERC721Connector('Kryptobird', 'KBIRDZ'){\n  }\n\n  function mint(string memory _kryptoBird) public {\n    require(!_kryptoBirdzExists[_kryptoBird], \"Error: Kryptobird already exists\");\n    KryptoBirdz.push(_kryptoBird);\n    uint _id = KryptoBirdz.length -1;\n\n    _mint(msg.sender, _id);\n    _kryptoBirdzExists[_kryptoBird] = true;\n  }\n}",
  "sourcePath": "/Users/otavioensa/Desktop/projects/nft class/nft-marketplace-starter-kit/src/contracts/KryptoBirdz.sol",
  "compiler": {
    "name": "solc",
    "version": "0.8.10+commit.fc410830.Emscripten.clang"
  },
  "schemaVersion": "3.4.3",
  "updatedAt": "2021-12-09T17:43:24.798Z",
  "networkType": "ethereum",
  "devdoc": {
    "kind": "dev",
    "methods": {
      "supportsInterface(bytes4)": {
        "details": "Interface identification is specified in ERC-165. This function  uses less than 30,000 gas.",
        "params": {
          "interfaceID": "The interface identifier, as specified in ERC-165"
        },
        "returns": {
          "_0": "`true` if the contract implements `interfaceID` and  `interfaceID` is not 0xffffffff, `false` otherwise"
        }
      }
    },
    "version": 1
  },
  "userdoc": {
    "kind": "user",
    "methods": {
      "supportsInterface(bytes4)": {
        "notice": "Query if a contract implements an interface"
      }
    },
    "version": 1
  }
}