{
  "contractName": "KryptoBird",
  "abi": [
    {
      "inputs": [],
      "stateMutability": "nonpayable",
      "type": "constructor"
    },
    {
      "anonymous": false,
      "inputs": [
        {
          "indexed": true,
          "internalType": "address",
          "name": "from",
          "type": "address"
        },
        {
          "indexed": true,
          "internalType": "address",
          "name": "to",
          "type": "address"
        },
        {
          "indexed": true,
          "internalType": "uint256",
          "name": "tokenId",
          "type": "uint256"
        }
      ],
      "name": "Transfer",
      "type": "event"
    },
    {
      "inputs": [
        {
          "internalType": "uint256",
          "name": "",
          "type": "uint256"
        }
      ],
      "name": "KryptoBirdz",
      "outputs": [
        {
          "internalType": "string",
          "name": "",
          "type": "string"
        }
      ],
      "stateMutability": "view",
      "type": "function",
      "constant": true
    },
    {
      "inputs": [
        {
          "internalType": "address",
          "name": "_owner",
          "type": "address"
        }
      ],
      "name": "balanceOf",
      "outputs": [
        {
          "internalType": "uint256",
          "name": "",
          "type": "uint256"
        }
      ],
      "stateMutability": "view",
      "type": "function",
      "constant": true
    },
    {
      "inputs": [],
      "name": "name",
      "outputs": [
        {
          "internalType": "string",
          "name": "",
          "type": "string"
        }
      ],
      "stateMutability": "view",
      "type": "function",
      "constant": true
    },
    {
      "inputs": [
        {
          "internalType": "uint256",
          "name": "_tokenId",
          "type": "uint256"
        }
      ],
      "name": "ownerOf",
      "outputs": [
        {
          "internalType": "address",
          "name": "",
          "type": "address"
        }
      ],
      "stateMutability": "view",
      "type": "function",
      "constant": true
    },
    {
      "inputs": [],
      "name": "symbol",
      "outputs": [
        {
          "internalType": "string",
          "name": "",
          "type": "string"
        }
      ],
      "stateMutability": "view",
      "type": "function",
      "constant": true
    },
    {
      "inputs": [],
      "name": "totalSupply",
      "outputs": [
        {
          "internalType": "uint256",
          "name": "",
          "type": "uint256"
        }
      ],
      "stateMutability": "view",
      "type": "function",
      "constant": true
    },
    {
      "inputs": [
        {
          "internalType": "string",
          "name": "_kryptoBird",
          "type": "string"
        }
      ],
      "name": "mint",
      "outputs": [],
      "stateMutability": "nonpayable",
      "type": "function"
    }
  ],
  "bytecode": "0x608060405234801561001057600080fd5b50604080518082018252600a81526912dc9e5c1d1bd89a5c9960b21b60208083019182528351808501909452600684526525a124a9222d60d11b9084015281519192918391839161006391600091610081565b508051610077906001906020840190610081565b5050505050610155565b82805461008d9061011a565b90600052602060002090601f0160209004810192826100af57600085556100f5565b82601f106100c857805160ff19168380011785556100f5565b828001600101855582156100f5579182015b828111156100f55782518255916020019190600101906100da565b50610101929150610105565b5090565b5b808211156101015760008155600101610106565b600181811c9082168061012e57607f821691505b6020821081141561014f57634e487b7160e01b600052602260045260246000fd5b50919050565b6108c6806101646000396000f3fe608060405234801561001057600080fd5b506004361061007d5760003560e01c806370a082311161005b57806370a08231146100dd57806395d89b41146100f0578063a3a1ff58146100f8578063d85d3d271461010b57600080fd5b806306fdde031461008257806318160ddd146100a05780636352211e146100b2575b600080fd5b61008a610120565b60405161009791906106b1565b60405180910390f35b6004545b604051908152602001610097565b6100c56100c03660046106e4565b6101b2565b6040516001600160a01b039091168152602001610097565b6100a46100eb3660046106fd565b610230565b61008a61029b565b61008a6101063660046106e4565b6102aa565b61011e610119366004610743565b610356565b005b60606000805461012f906107f4565b80601f016020809104026020016040519081016040528092919081815260200182805461015b906107f4565b80156101a85780601f1061017d576101008083540402835291602001916101a8565b820191906000526020600020905b81548152906001019060200180831161018b57829003601f168201915b5050505050905090565b6000818152600260205260408120546001600160a01b0316806102135760405162461bcd60e51b8152602060048201526014602482015273043616e206e6f74206265206164647265737320360641b60448201526064015b60405180910390fd5b50506000908152600260205260409020546001600160a01b031690565b60006001600160a01b03821661027f5760405162461bcd60e51b8152602060048201526014602482015273043616e206e6f74206265206164647265737320360641b604482015260640161020a565b506001600160a01b031660009081526003602052604090205490565b60606001805461012f906107f4565b600881815481106102ba57600080fd5b9060005260206000200160009150905080546102d5906107f4565b80601f0160208091040260200160405190810160405280929190818152602001828054610301906107f4565b801561034e5780601f106103235761010080835404028352916020019161034e565b820191906000526020600020905b81548152906001019060200180831161033157829003601f168201915b505050505081565b600981604051610366919061082f565b9081526040519081900360200190205460ff16156103c65760405162461bcd60e51b815260206004820181905260248201527f4572726f723a204b727970746f6269726420616c726561647920657869737473604482015260640161020a565b600880546001810182556000919091528151610409917ff3f7a9fe364faab93b216da50a3214154f22a0a2b415b23a84c8169e8b636ee3019060208401906105e8565b5060085460009061041c90600190610861565b9050610428338261045e565b600160098360405161043a919061082f565b908152604051908190036020019020805491151560ff199092169190911790555050565b61046882826104a5565b6104a181600480546001810182556000919091527f8a35acfbc15ff81a39ae7d344fd709f28e8600b4aa8c65c6b64bfe7fe36bd19b0155565b5050565b6001600160a01b0382166104fb5760405162461bcd60e51b815260206004820152601f60248201527f4552433732313a206d696e74696e6720746f207a65726f206164647265737300604482015260640161020a565b6000818152600260205260409020546001600160a01b0316156105605760405162461bcd60e51b815260206004820152601b60248201527f4552433732313a20546f6b656e206d696e746564206265666f72650000000000604482015260640161020a565b600081815260026020908152604080832080546001600160a01b0319166001600160a01b0387169081179091558352600390915281208054600192906105a7908490610878565b909155505060405181906001600160a01b038416906000907fddf252ad1be2c89b69c2b068fc378daa952ba7f163c4a11628f55a4df523b3ef908290a45050565b8280546105f4906107f4565b90600052602060002090601f016020900481019282610616576000855561065c565b82601f1061062f57805160ff191683800117855561065c565b8280016001018555821561065c579182015b8281111561065c578251825591602001919060010190610641565b5061066892915061066c565b5090565b5b80821115610668576000815560010161066d565b60005b8381101561069c578181015183820152602001610684565b838111156106ab576000848401525b50505050565b60208152600082518060208401526106d0816040850160208701610681565b601f01601f19169190910160400192915050565b6000602082840312156106f657600080fd5b5035919050565b60006020828403121561070f57600080fd5b81356001600160a01b038116811461072657600080fd5b9392505050565b634e487b7160e01b600052604160045260246000fd5b60006020828403121561075557600080fd5b813567ffffffffffffffff8082111561076d57600080fd5b818401915084601f83011261078157600080fd5b8135818111156107935761079361072d565b604051601f8201601f19908116603f011681019083821181831017156107bb576107bb61072d565b816040528281528760208487010111156107d457600080fd5b826020860160208301376000928101602001929092525095945050505050565b600181811c9082168061080857607f821691505b6020821081141561082957634e487b7160e01b600052602260045260246000fd5b50919050565b60008251610841818460208701610681565b9190910192915050565b634e487b7160e01b600052601160045260246000fd5b6000828210156108735761087361084b565b500390565b6000821982111561088b5761088b61084b565b50019056fea2646970667358221220390edeb83b0a59f728405a510d02f575bc068743a5f56d73af9f665347597a7964736f6c63430008090033",
  "immutableReferences": {},
  "source": "// SPDX-License-Identifier: MIT\npragma solidity ^0.8.0;\n\nimport './ERC721Connector.sol';\n\ncontract KryptoBird is ERC721Connector {\n\n  string[] public KryptoBirdz;\n\n  mapping(string => bool) _kryptoBirdzExists;\n\n  constructor() ERC721Connector('Kryptobird', 'KBIRDZ'){\n  }\n\n  function mint(string memory _kryptoBird) public {\n    require(!_kryptoBirdzExists[_kryptoBird], \"Error: Kryptobird already exists\");\n    KryptoBirdz.push(_kryptoBird);\n    uint _id = KryptoBirdz.length -1;\n\n    _mint(msg.sender, _id);\n    _kryptoBirdzExists[_kryptoBird] = true;\n  }\n}",
  "sourcePath": "/Users/otavioensa/Desktop/projects/nft class/nft-marketplace-starter-kit/src/contracts/KryptoBirdz.sol",
  "compiler": {
    "name": "solc",
    "version": "0.8.9+commit.e5eed63a.Emscripten.clang"
  },
  "schemaVersion": "3.4.1",
  "updatedAt": "2021-10-22T20:00:55.183Z",
  "networkType": "ethereum",
  "devdoc": {
    "kind": "dev",
    "methods": {},
    "version": 1
  },
  "userdoc": {
    "kind": "user",
    "methods": {},
    "version": 1
  }
}